:020000040800F2
:10000000A0040020010100086D180008D91600089E
:100010006918000851050008811800080000000058
:10002000000000000000000000000000751800083B
:100030005505000800000000711800087918000834
:100040001B0100081B0100081B0100081B01000820
:100050001B0100081B0100081B0100081B01000810
:100060001B0100081B0100081B0100081B01000800
:100070001B0100081B0100081B0100081B010008F0
:100080001B0100081B0100081B0100081B010008E0
:100090001B0100081B0100081B0100081B010008D0
:1000A0001B0100081B0100081B0100081B010008C0
:1000B0001B0100081B0100081B0100081B010008B0
:1000C0001B0100081B0100081B0100081B010008A0
:1000D0001B0100081B0100081B0100081B01000890
:1000E0001B0100081B0100081B010008DFF80CD0F1
:1000F00000F0FCF90048004785180008A004002023
:100100000648804706480047FEE7FEE7FEE7FEE7B1
:10011000FEE7FEE7FEE7FEE7FEE7FEE77D180008E4
:10012000ED000008F0B480EA0102D40F4200B2EB07
:10013000410F02D20246084611464A0042D0C30D82
:10014000DDB2C1F3C752AD1A202D35DAC1F3160165
:1001500041F4000204B15242C5F1200602FA06F150
:100160002A411044B3EBD05F23D0C4B1012DA0EBE2
:10017000C35009DCF0BC4FF0004202EAC352DBB2CC
:1001800000F5000000F026B9400000F1807000EB9F
:10019000C350A0F1807040EAD170490009E04908DD
:1001A00041EAC071A0EBC35000F50000400800EB2D
:1001B000C350F0BC00F005B96142012202EB4101DD
:1001C000001BF6E7F0BC704781F00041AAE780F021
:1001D0000040A7E730B480EA010202F0004530F0A9
:1001E000004221F0004013D090B1C30DD40DC2F3F2
:1001F0001601C0F31600E41A41F4000140F40002B5
:100200007D34914201D3641C00E04900002C02DAE5
:1002100030BC002070474FF400000023914201D30E
:10022000891A034340084FEA4101F7D151B1914285
:1002300002D14FF0004105E002D24FF0010101E090
:100240006FF0010103EBC450284430BC00F0B9B892
:100250002DE9F04D81EA030404F0004B21F0004544
:1002600014464FF0000A23F0004150EA050220D066
:1002700054EA01021DD0C5F30A570246C5F3130321
:10028000C1F31300C1F30A5640F4801543F4801300
:10029000A7EB0608101BD64608F2FD3873EB0500E5
:1002A00002D308F1010801E092185B41B8F1000F98
:1002B00003DA00200146BDE8F08D00204FF48011E4
:1002C000064684460EE0171B73EB050705D3121B89
:1002D00063EB050306434CEA010C49084FEA300082
:1002E00092185B4150EA0107EDD152EA030012D0A7
:1002F00082EA040083EA0501084305D0101BAB41E4
:1003000006D20122002306E000224FF0004302E063
:100310006FF0010253101AEB06004CEB085110EB82
:100320000A0041EB0B01BDE8F04D00F081B8002858
:1003300001DBC0F10040002901DBC1F10041814235
:1003400001D20120704700207047002801DBC0F176
:100350000040002901DBC1F10041814201D30120AD
:1003600070470020704796230022114600F032B8F3
:100370000EB540F2334102910021CDE900110A4649
:100380000B4600F064F803B000BD01F0004330B448
:1003900021F0004150EA010206D00A0DA2F5607278
:1003A000C1F31301002A02DC30BC00207047440F67
:1003B00044EAC104C100E01830BC00EBC250AFF306
:1003C00000800029A8BF7047401C490008BF20F0EA
:1003D0000100704710B4B0FA80FC00FA0CF050EA4B
:1003E000010404BF10BC704749B1CCF1200421FACC
:1003F00004F411FA0CF118BF012121430843A3EBC7
:100400000C01CB1D4FEA00614FEA102042BF0020D3
:1004100010BC704700EBC35010440029A4BF10BCAF
:100420007047401C490008BF20F0010010BC704715
:1004300010B5141E73F1000408DA401C41F10001EC
:1004400092185B411A4301D120F0010010BD2DE943
:10045000F04D92469B4611B1B1FA81F202E0B0FA3A
:1004600080F22032904600F053F804460F4640EAEE
:100470000A0041EA0B0153465A46084313D011467D
:1004800053EA010019D0C8F14002504600F04FF87D
:1004900005460E4650465946424600F039F8084394
:1004A00005D0012004E020463946BDE8F08D00204B
:1004B000054346EAE0762C4337430A986305E40A8D
:1004C000A0EB08000022FD0A44EA47540A3002D596
:1004D00000200146E9E7010510196941DDE90845F9
:1004E00000196941BDE8F04DA2E70000064C074D38
:1004F00006E0E06840F0010394E8070098471034F4
:10050000AC42F6D3FFF7F6FD141A0008341A0008BF
:10051000202A04DB203A00FA02F1002070479140C3
:10052000C2F1200320FA03F3194390407047202AB8
:1005300004DB203A21FA02F00021704721FA02F38D
:10054000D040C2F120029140084319467047000094
:10055000FEE7000070470000EFF3108072B600BFA6
:10056000FEE70000B0B540F210046FF00501C2F2E2
:100570000004081A216885B220464D6200F0A6FDED
:100580004FF6F970854213D820684FF6FA7100BF14
:10059000426A92B28A420BD2426A92B28A4207D22D
:1005A000426A92B28A4203D2426A92B28A42EFD33C
:1005B00040F21000C2F20000BDE8B04000F0BABD49
:1005C0002DE9F04F82B041F20042C4F201020E6800
:1005D0000423904208BF0323002E009300F0F6800E
:1005E00040F20C4E4FF6FF7CC4F2010E00220124B3
:1005F000C1F2100C4FF0000A4FF0000943E000BFB9
:10060000012502F00C040F27A7402BEA070705FA83
:1006100004F43C4343F82640D1F804B040F20045CE
:10062000C4F201055FEACB332B6854BF23EA080309
:1006300043EA08032B606B685FEA8B3454BF23EAFC
:10064000080343EA08036B605FEACB24AB6854BF3E
:1006500023EA080343EA08035FEA8B24AB60DEF871
:1006600000304FF0010454BF23EA080343EA0803B3
:10067000CEF800300E680AF1010A36FA0AF302F1E8
:10068000040200F0A38004FA0AF816EA080FF1D079
:100690004B68634512DC122B56D8DFE803F0350BAC
:1006A0004549555555555555555555555555554D1E
:1006B000510000BFD1F80C9046E000BF4FF6FF7725
:1006C000C1F22107BB420FDC0027C1F21107BB4278
:1006D0001AD00027C1F21207BB4215D00027C1F281
:1006E0002107BB4210D02FE00027C1F22207BB42F6
:1006F0000AD00027C1F23107BB4205D00027C1F262
:100700003207BB4220D100BF8B684BB1012B14BF15
:10071000C0F81480C0F810804FF0080914E000BF42
:100720004FF0040910E000BFCB6803F108090BE0AB
:100730004FF0000908E000BFCB6803F1040903E0B3
:10074000CB6803F10C0900BF13460546BAF1080F48
:1007500024BF203B04352E680F279F40BE4309FA73
:1007600003F333432B60CB79DB067FF583AF41F294
:100770001804C4F2020423684FEA9A0643F0010306
:100780002360236840F6000403F001030193019BFA
:1007900040F20043C4F20103A3F57E7353F826B080
:1007A000C4F20104A0420FD040F60044C4F2010498
:1007B000A0423FF425AF41F20004C4F20104009DC1
:1007C000A04208BF02251CE700251AE702B0BDE8D9
:1007D000F08F00008068084018BF012070470000BB
:1007E000002A08BF090401617047000040F29C0024
:1007F000C2F200000068704740F2000040F29C0125
:10080000C2F20000C2F2000100780A6810440860D9
:100810007047000080B542F20000C4F20200016897
:1008200041F010010160032000F07AF80F2000F081
:1008300005F800F027F8002080BD000070B540F2F8
:100840000006C2F2000640F208013278C2F200014E
:100850004FF47A730968B3FBF2F20446B1FBF2F18C
:10086000084600F04FFB0F2C4FF0010508D838B9AF
:100870004FF0FF3021460022002500F025F874607B
:10088000284670BD82B041F21800C4F2020001682F
:10089000022241F001010160016801F001010191B2
:1008A0000199416841F080514160406800F08050FA
:1008B000009000980420C4F20100016862F31A61FC
:1008C000016002B07047000010B54EF60C5CCEF22D
:1008D000000CDCF80030C3F3022E8EF00704042C69
:1008E00028BF0424BEF103034FF0FF3E0EFA04F4C8
:1008F00038BF0023A14399400EFA03F39A431143F2
:1009000000F00F02043A624409010C3200F1604326
:10091000B0F1FF3FC8BF03F56442117010BD000085
:100920004EF60C51CEF200010A684FF6FF031A4052
:1009300060F30A2242F0806040F0FD70086070476A
:100940002DE9F04381B0002800F0858042F20008D4
:10095000C4F202080446D8F800000D4600F0070073
:1009600088420CD2D8F8000020F007002843C8F8CD
:100970000000D8F8000000F00700A8426BD1206802
:1009800041F204098107C4F2020917D5410705D5D0
:10099000D9F8001041F4E061C9F80010010705D54D
:1009A000D9F8001041F46051C9F80010D9F80010CE
:1009B000A26821F0F0011143C9F80010C00741D12D
:1009C000D8F8000000F00700A8420CD9D8F80000C1
:1009D00020F007002843C8F80000D8F8000000F015
:1009E0000700A84237D12068410707D5D9F8001081
:1009F000E26821F4E0611143C9F80010000708D54E
:100A0000D9F80000216920F4605040EAC100C9F81B
:100A10000000D9F8002002F00C00082841F2002064
:100A2000C0F27A0050D141F60223C2F38341C0F6EE
:100A30000003595CD2033BD440F60010C0F23D00E5
:100A4000484341E0606802280AD001282AD159F8B9
:100A5000041C890308D4012001B0BDE8F08300BF65
:100A600059F8041C8901F6D5D9F8001021F00301CA
:100A70000843C9F80000FFF7B9FE064641F288377F
:100A8000D9F80000616800F00C00B0EB810F97D03E
:100A9000FFF7ACFE801BB842F2D9032001B0BDE8DD
:100AA000F08300BF59F8041C8907D4D5DCE700BFE8
:100AB000D9F8002041F6E813C2F34042C0F6000323
:100AC0009A5C4843B0FBF2F0D9F8001041F6EA1204
:100AD000C1F30311C0F60002515C40F2080220FA93
:100AE00001F140F20400C2F200000068C2F200020C
:100AF0001160FFF7A3FE002001B0BDE8F083000005
:100B000040F2080041F20401C2F20000C4F2020106
:100B10000068096841F6FA12C1F30221C0F600022A
:100B2000515CC8407047000040F2080041F20401E7
:100B3000C2F20000C4F202010068096841F6FA122C
:100B4000C1F3C221C0F60002515CC84070470000EA
:100B50002DE9F04182B0002868D00446007841F2C7
:100B60000006C007C4F2020625D0706800F00C0031
:100B700004281BD0706800F00C00082802D17068AF
:100B8000C00313D46068002800F06881B0F5A02F7E
:100B900000F07C81B0F5803F00F07C81306820F46B
:100BA00080303060306820F4802076E13068800347
:100BB00001D56068D0B32078800718D5706810F030
:100BC0000C0F07D0706800F00C0008286ED1706818
:100BD000C0036BD43068800702D52069012825D175
:100BE0003068616920F0F80040EAC1003060207888
:100BF00000071FD42078400732D4E56995B17068AA
:100C000000F00C00082840F08F80012D0ED0706895
:100C1000216A00F480328A4208D1616A00F47010BF
:100C2000884203D1002002B0BDE8F081012002B06B
:100C3000BDE8F081A069002862D00020C4F2422003
:100C40000121C0F88014FFF7D1FD0546706A8007C6
:100C500000F18C80FFF7CAFD401B0228F6D92AE17B
:100C6000F06910F0805808D1F06940F08050F061D0
:100C7000F06900F080500090009847F20007C4F23D
:100C800000073868C00529D4386840F4807038609F
:100C9000FFF7ACFD054600BF3868C0051ED4FFF75E
:100CA000A5FD401B6428F7D905E100BF2069002895
:100CB00040F20000C4F2422000F082800121016075
:100CC000FFF794FD054600BF306880073FF588AF09
:100CD000FFF78CFD401B0228F6D9ECE0E068002805
:100CE00000F08080052800F09780012800F09880AF
:100CF000306A20F001003062306A20F0040092E097
:100D00000020C4F242200021C0F88014FFF76EFDDD
:100D1000054600BF706A80077FF56CAFFFF766FD80
:100D2000401B0228F6D9C6E00027C4F24227002063
:100D30003866FFF75BFD022D05460BD13068800158
:100D400040F1BE80FFF752FD401B02284FF0030028
:100D5000F4D968E7306880017FF564AFFFF746FD9E
:100D6000401B02284FF00300F4D95CE740F2080072
:100D7000C2F20000006844F6D351C1F26201A0FB48
:100D80000101480A019000BF00BF0198411E0028E0
:100D900001913FF42FAF00BF0198411E002801913F
:100DA0003FF428AF00BF0198411E002801913FF495
:100DB00021AF00BF0198411E00280191E4D119E73D
:100DC00000210160FFF712FD054600BF3068800773
:100DD0007FF50DAFFFF70AFD401B02284FF003001F
:100DE000F4D920E7306A20F001003062306A20F048
:100DF00004003062FFF7FAFC054641F2883700BF75
:100E0000306A800720D5FFF7F1FC401BB8424FF055
:100E10000300F5D907E700BF306A40F004003062F4
:100E2000306A40F001003062FFF7E0FC054641F215
:100E3000883700BF306A800706D4FFF7D7FC401B15
:100E4000B842F7D937E000BFB8F1000F7FF4D5AE54
:100E5000F06920F08050F061CFE600BF306820F4E8
:100E600080303060306820F480203060FFF7BEFCB6
:100E7000054600BF306880037FF59DAEFFF7B6FCE6
:100E8000401B64284FF00300F4D9CCE6306840F4EE
:100E900080203060306840F480303060FFF7A6FC7E
:100EA000054600BF306880033FF585AEFFF79EFC26
:100EB000401B6428F6D9032002B0BDE8F08100BFD2
:100EC000206AB0F5803F05D17168A26821F4003135
:100ED000114371607168626A21F474111043084310
:100EE000706001203866FFF781FC0446306880019D
:100EF0003FF598AEFFF77AFC001B02284FF0030085
:100F0000F4D990E6411E0020B0EB116F1CBF012008
:100F100070474EF21002CEF2000251604EF623519D
:100F2000CEF20001F0230B70072190601160704732
:100F300010B590F83C20012A4FF0020233D080F81F
:100F40003D200268D2F804E0D2F808C00C682EF008
:100F50007003234340F2FF74C4F20004A2425360C2
:100F60000ADCB2F1804F13D040F20043C4F2000318
:100F70009A420DD011E000BF42F60043C4F20103D3
:100F80009A4205D040F60003C4F200039A4204D10D
:100F900049682CF08003194391600121002280F8F8
:100FA0003D1080F83C20104610BD0000002804BF12
:100FB0000120704710B5044690F83D0028B9002084
:100FC00084F83C00204600F067F8022084F83D00D9
:100FD000206840F2FF730268C4F2000342F6004C3E
:100FE0009842C4F2010C15DCB0F1804F1AD040F2E7
:100FF0000041C4F20001884214D0984218DCB0F1DC
:10100000804F1DD040F20041C4F20001884217D049
:101010001AE000BF604505D040F60001C4F20001AF
:101020008842EAD1A16822F070020A439842E6DDC4
:10103000604505D040F60001C4F20001884203D1AA
:10104000216922F440720A43A36922F08001D4F896
:1010500004E0E268194360450160C262C0F828E01C
:1010600002D16169CCF8301001214161002084F87F
:10107000461084F83E1084F83F1084F8401084F83D
:10108000411084F8421084F8431084F8441084F826
:10109000451084F83D1010BD81B0006842F6004153
:1010A000C4F20101884201D001B0704741F218003A
:1010B000C4F20200016841F400610160006800F4BC
:1010C00000600090009801B07047000090F83D105B
:1010D00001291CBF01207047022180F83D100068E3
:1010E00040F2FF71C4F20001884209DCB0F1804F88
:1010F00012D040F20041C4F2000188420CD012E04C
:1011000042F60041C4F20101884205D040F60001D8
:10111000C4F20001884206D1816801F00701062966
:1011200004BF00207047016841F001010160002008
:10113000704700000146006841F21113026A1A422A
:1011400004D00122002081F83D207047026A40F25D
:1011500044431A42F5D1026822F0010202600122E2
:10116000002081F83D20704780B590F83C20012A8E
:101170004FF0020200F0BF8080F83D20D0F800C0A0
:101180004FF67772DCF8083023EA0202CCF8082028
:101190000B683F2B1CDD5F2B20DD602B50D0B3F59F
:1011A000005F6DD0702B40F0A080D1E901E3C968E9
:1011B000DCF8082043EA0E0322F47F4243EA0121CF
:1011C0001143CCF80810DCF8081041F077018AE0F0
:1011D0001F2B29DC63B3102B2AD086E0402B63D071
:1011E000502B40F08280D1F804E0C968DCF8203050
:1011F000DCF8202022F00102CCF82020DCF81820B6
:1012000022F0F00242EA011123F00A0242EA0E0241
:10121000CCF81810CCF82020DCF8081041F0570169
:1012200021F020015FE000BF202B01D0302B5CD1EA
:10123000DCF8081021F07001194341F0070152E079
:10124000D1F804E0C968DCF8203023F01003CCF8B2
:101250002030DCF81830DCF8202023F4704322F032
:10126000A00243EA013142EA0E12CCF81810CCF881
:101270002020DCF8081041F0670121F0100132E075
:10128000D1E901E3C968DCF8082043EA0E0322F43F
:101290007F4243EA01211143CCF80810DCF8081022
:1012A00041F480411FE000BFD1F804E0C968DCF8D8
:1012B0002030DCF8202022F00102CCF82020DCF8DD
:1012C000182022F0F00242EA011123F00A0242EA59
:1012D0000E02CCF81810CCF82020DCF8081041F0F1
:1012E000470121F03001CCF808100121002280F8DC
:1012F0003D1080F83C20104680BD0000002804BF4F
:101300000120704710B5044690F83D0028B9002030
:1013100084F83C00204600F05FF8242084F83D006B
:101320002068D4E90212C36823F40053C360036940
:1013300023F440531A430261D4E904231143C268E1
:10134000194341F20C639A431143C1604169A26998
:1013500021F44071114343F60002C4F201029042AD
:10136000416103D0FFF7CCFB02E000BFFFF7DCFBDD
:101370006268192148439100B0FBF1F048F21F5117
:10138000C5F2EB11A0FB01235A096FF0630302FBC6
:101390000300322303EB0010A0FB0101F02303EA5A
:1013A0005113206803EB0212C1F343111144816011
:1013B000016921F490410161416921F02A014161F3
:1013C000C16841F40051C16000202021206484F8EC
:1013D0003D1084F83E1010BD70B586B040F6000494
:1013E000C4F20104006804F54051002688420496C6
:1013F00002D006B070BD00BF41F21800C4F2020076
:10140000016802AD41F480410160016801F480414E
:1014100001910199016841F00401016000682946C9
:1014200000F00400019001984FF400700290022037
:101430000390032005902046FFF7C2F84FF4806028
:10144000CDE90206204629460496FFF7B9F806B012
:1014500070BD000070B50446002550B1264600BF9F
:1014600000F010F801462846FEF75CFE013E0546F6
:10147000F6D12046FEF777FF01462846FEF7AAFE82
:1014800070BD0000B0B540F60004C4F2010420466F
:1014900020210122FFF7A4F91420FFF763F820466A
:1014A00020210022FFF79CF920464021FFF792F906
:1014B0000028F9D040F21005C2F20005286800218A
:1014C00041622846FFF702FE20464021FFF782F9DD
:1014D0000028F9D12846FFF72DFE2868406AFEF75C
:1014E00047FF0023C4F24D030022FEF7B1FEFEF7D2
:1014F0004CFFB0BD70B50446002550B1264600BF74
:1015000000F010F801462846FEF70CFE013E0546A5
:10151000F6D12046FEF727FF01462846FEF75AFE81
:1015200070BD0000B0B540F60004C4F201042046CE
:1015300008210122FFF754F91420FFF713F8204681
:1015400008210022FFF74CF920461021FFF742F94D
:101550000028F9D040F21005C2F2000528680021E9
:1015600041622846FFF7B2FD20461021FFF732F90D
:101570000028F9D12846FFF7DDFD2868406AFEF70C
:10158000F7FE0023C4F24D030022FEF761FEFEF7D2
:10159000FCFEB0BD70B50446002550B1264600BF24
:1015A00000F010F801462846FEF7BCFD013E054656
:1015B000F6D12046FEF7D7FE01462846FEF70AFE82
:1015C00070BD0000B0B540F60004C4F2010420462E
:1015D00080210122FFF704F91420FEF7C3FF204603
:1015E00080210022FFF7FCF804F5806420460121E9
:1015F000FFF7F0F80028F9D040F21005C2F200051C
:101600002868002141622846FFF760FD204601213D
:10161000FFF7E0F80028F9D12846FFF78BFD28688E
:10162000406AFEF7A5FE0023C4F24D030022FEF738
:101630000FFEFEF7AAFEB0BD70B50446002550B1FE
:10164000264600BF00F010F801462846FEF76AFD66
:10165000013E0546F6D12046FEF785FE01462846A6
:10166000FEF7B8FD70BD0000B0B540F60044C4F20E
:101670000104204602210122FFF7B2F81420FEF7F0
:1016800071FF204602210022FFF7AAF8204604211C
:10169000FFF7A0F80028F9D040F21005C2F20005CB
:1016A0002868002141622846FFF710FD20460421EA
:1016B000FFF790F80028F9D12846FFF73BFD28688E
:1016C000406AFEF755FE0023C4F24D030022FEF7E8
:1016D000BFFDFEF75AFEB0BDFEE700002DE9F04F5A
:1016E00085B041F21800C4F20200016840F600051E
:1016F00041F0100101600168C4F2010501F0100120
:10170000019101990168002241F020010160016806
:10171000AE2601F02001019101990168002741F0F6
:1017200004010160016801F004010191019901685F
:1017300041F0080101600068AE2100F0080001904E
:1017400001982846FFF74CF805F5806420464FF6CF
:10175000024100224FF60248FFF742F8019601AE1F
:101760004FF001094FF0020A4FF0030B28463146B3
:10177000CDF80890CDF80CA0CDF810B0FEF720FF02
:101780005020CDE90107284631460397FEF718FFA0
:10179000FD20CDE90107204631460397FEF710FFF3
:1017A00001A880E8000F20463146FEF709FF05B08A
:1017B000BDE8F08F80B586B040F2100042F60042DE
:1017C0000021C2F20000C4F2010247234FF6FF7C61
:1017D0000591CDE90311CDE90011C0E90023C0E96D
:1017E000021CC0E904118161FFF7E0FB002818BF6B
:1017F000FEF7B2FE4FF48050029040F21000C2F2A9
:10180000000002A9FFF7B0FC002818BFFEF7A4FEF5
:1018100040F21000C2F200006946FFF789FB002881
:1018200018BFFEF799FE06B080BD000080B540F2FB
:10183000580043F60001C2F20000C4F20101002387
:101840004FF00C0C4FF4165280E80E00C0E9033341
:10185000C0E905C3C361FFF751FD002808BF80BD83
:10186000BDE88040FEF778BEFEE70000FEE700001E
:101870007047000070470000FEF7BEBF70470000D1
:10188000FEE7000090B0FEF7C5FF00240120CDE97F
:101890000B44CDE9094406900A904FF4E0104FF450
:1018A000803102250F9006A8CDE90714CDE90D512E
:1018B000FFF74EF920B1EFF3108072B6FEE700BFDC
:1018C0000F20CDE901054FF48060CDE9040401A8A3
:1018D00002210394FFF734F820B1EFF3108072B6C1
:1018E000FEE700BF40F60049C4F20109FFF7F6FE2B
:1018F000FFF79CFFFFF75EFF40F20008C4F22018DC
:101900001AE000BF00270026A9F5806002213A46B0
:10191000FEF766FF48464FF480613246FEF760FFEF
:1019200048464FF480513A46FEF75AFF48464FF476
:1019300080413246FEF754FF0520FFF7DBFD0446E9
:101940000520FFF787FD05460520FFF723FE074624
:101950000520FFF771FE064620464146FEF7E7FCEC
:1019600078B928464146FEF7E2FC50B93846414670
:10197000FEF7DDFC28B930464146FEF7E6FC0028BC
:10198000C0D148462021FEF725FFD8B1484608219E
:10199000FEF720FF90B148461021FEF71BFF68B10B
:1019A00048464021FEF716FF28B148468021FEF741
:1019B00011FF0028C0D100260127A5E70126002736
:1019C000A2E700BF012701269EE702E008C8121F18
:1019D00008C1002AFAD170477047002001E001C118
:1019E000121F002AFBD17047010200000000000016
:1019F00000000102030406070809000000000102BC
:101A0000030402030405060708090A0B0C0D0E0F58
:101A100010100000381A000800000020100000001C
:101A2000CA190008481A000810000020900400009D
:101A3000DA1900080000000001000000100000009A
:081A40000024F4000000000086
:04000005080000ED02
:00000001FF
