:020000040800F2
:10000000A00400200101000891160008F114000866
:100010008D16000819040008A5160008000000004D
:100020000000000000000000000000009916000819
:100030001D04000800000000951600089D16000829
:100040001B0100081B0100081B0100081B01000820
:100050001B0100081B0100081B0100081B01000810
:100060001B0100081B0100081B0100081B01000800
:100070001B0100081B0100081B0100081B010008F0
:100080001B0100081B0100081B0100081B010008E0
:100090001B0100081B0100081B0100081B010008D0
:1000A0001B0100081B0100081B0100081B010008C0
:1000B0001B0100081B0100081B0100081B010008B0
:1000C0001B0100081B0100081B0100081B010008A0
:1000D0001B0100081B0100081B0100081B01000890
:1000E0001B0100081B0100081B010008DFF80CD0F1
:1000F00000F060F900480047A9160008A00400209D
:100100000648804706480047FEE7FEE7FEE7FEE7B1
:10011000FEE7FEE7FEE7FEE7FEE7FEE7A1160008C2
:10012000ED0000082DE9F04D81EA030404F0004BD6
:1001300021F0004514464FF0000A23F0004150EA38
:10014000050220D054EA01021DD0C5F30A57024629
:10015000C5F31303C1F31300C1F30A5640F480152D
:1001600043F48013A7EB0608101BD64608F2FD38AF
:1001700073EB050002D308F1010801E092185B411E
:10018000B8F1000F03DA00200146BDE8F08D002031
:100190004FF48011064684460EE0171B73EB0507EB
:1001A00005D3121B63EB050306434CEA010C490817
:1001B0004FEA300092185B4150EA0107EDD152EA54
:1001C000030012D082EA040083EA0501084305D047
:1001D000101BAB4106D20122002306E000224FF0A3
:1001E000004302E06FF0010253101AEB06004CEBE3
:1001F000085110EB0A0041EB0B01BDE8F04D00F097
:100200007CB8002801DBC0F10040002901DBC1F10E
:100210000041814201D8012070470020704700282A
:1002200001DBC0F10040002901DBC1F10041814246
:1002300001D901207047002070470EB540F23341CC
:1002400002910021CDE900110A460B4600F064F846
:1002500003B000BD01F0004330B421F0004150EA8A
:10026000010206D00A0DA2F56072C1F31301002A43
:1002700002DC30BC00207047440F44EAC104C100D6
:10028000E01830BC00EBC250AFF300800029A8BFDB
:100290007047401C490008BF20F00100704710B4AF
:1002A000B0FA80FC00FA0CF050EA010404BF10BC64
:1002B000704749B1CCF1200421FA04F411FA0CF191
:1002C00018BF012121430843A3EB0C01CB1D4FEACA
:1002D00000614FEA102042BF002010BC704700EBC5
:1002E000C35010440029A4BF10BC7047401C4900F3
:1002F00008BF20F0010010BC704710B5141E73F148
:10030000000408DA401C41F1000192185B411A43D5
:1003100001D120F0010010BD2DE9F04D92469B4621
:1003200011B1B1FA81F202E0B0FA80F220329046C7
:1003300000F052F804460F4640EA0A0041EA0B0179
:1003400053465A46084313D0114653EA010019D0C8
:10035000C8F14002504600F04EF805460E465046A1
:100360005946424600F038F8084305D0012004E021
:1003700020463946BDE8F08D0020054346EAE07688
:100380002C4337430A986305E40AA0EB08000022D7
:10039000FD0A44EA47540A3002D500200146E9E745
:1003A000010510196941DDE9084500196941BDE8F9
:1003B000F04DA2E7064C074D06E0E06840F001036F
:1003C00094E8070098471034AC42F6D3FFF792FE4A
:1003D00088180008A8180008202A04DB203A00FA30
:1003E00002F1002070479140C2F1200320FA03F38C
:1003F000194390407047202A04DB203A21FA02F08A
:100400000021704721FA02F3D040C2F1200291404E
:100410000843194670470000FEE7000070470000DF
:10042000EFF3108072B600BFFEE70000B0B540F2F7
:1004300010046FF00501C2F20004081A216885B2A9
:1004400020464D6200F0AAFD4FF6F970854213D8A0
:1004500020684FF6FA7100BF426A92B28A420BD20C
:10046000426A92B28A4207D2426A92B28A4203D266
:10047000426A92B28A42EFD340F21000C2F2000008
:10048000BDE8B04000F0BEBD2DE9F04F82B00E686F
:10049000002E00F0038140F20C4C41F200424FF676
:1004A000FF7EC4F2010CC4F20102042700240123E0
:1004B000C1F2100E4FF0000A4FF00009904208BF41
:1004C0000327009745E000BF012704F00C030F222B
:1004D0009A402BEA020207FA03F34FEA9A051A43FD
:1004E00046F82520D1F804B040F20045C4F20105D9
:1004F0005FEACB322A6854BF22EA080242EA0802C5
:100500002A606A685FEA8B3354BF22EA080242EA33
:1005100008026A605FEACB23AA6854BF22EA080295
:1005200042EA08025FEA8B23AA60DCF800204FF061
:10053000010354BF22EA080242EA0802CCF8002074
:100540000E680AF1010A36FA0AF204F1040400F016
:10055000A58003FA0AF816EA080FF1D04E6876452E
:1005600012DC122E56D8DFE806F0350B45495555FA
:1005700055555555555555555555554D510000BF77
:10058000D1F80C9046E000BF4FF6FF72C1F2210295
:1005900096420FDC0022C1F2110296421AD00022CC
:1005A000C1F21202964215D00022C1F221029642F7
:1005B00010D02FE00022C1F2220296420AD000227F
:1005C000C1F23102964205D00022C1F232029642B7
:1005D00020D100BF8A684AB1012A14BFC0F8148034
:1005E000C0F810804FF0080914E000BF4FF0040974
:1005F00010E000BFCA6802F108090BE04FF00009E3
:1006000008E000BFCA6802F1040903E0CA6802F109
:100610000C0900BF22460646BAF1080F24BF203A53
:10062000043637680F25954027EA050509FA02F2D6
:100630002A433260CA79D2067FF582AF41F21803AD
:10064000C4F202031A6842F001021A601A6802F04A
:1006500001020192019A40F20042C4F20102A2F5A5
:100660007E762AF0030256F802B040F60002C4F289
:100670000102904210D040F60042C4F201029042C2
:100680003FF422AF41F20002C4F20102009F904207
:1006900008BF022719E700BF002716E702B0BDE830
:1006A000F08F00008068084018BF012070470000EC
:1006B000002A08BF090401617047000040F29C0055
:1006C000C2F200000068704740F2000040F29C0156
:1006D000C2F20000C2F2000100780A68104408600B
:1006E0007047000080B542F20000C4F202000168C9
:1006F00041F010010160032000F07AF80F2000F0B3
:1007000005F800F027F8002080BD000070B540F229
:100710000006C2F2000640F208013278C2F200017F
:100720004FF47A730968B3FBF2F20446B1FBF2F1BD
:10073000084600F04FFB0F2C4FF0010508D838B9E0
:100740004FF0FF3021460022002500F025F87460AC
:10075000284670BD82B041F21800C4F20200016860
:10076000022241F001010160016801F001010191E3
:100770000199416841F080514160406800F080502B
:10078000009000980420C4F20100016862F31A612D
:10079000016002B07047000010B54EF60C5CCEF25E
:1007A000000CDCF80030C3F3022E8EF00704042C9A
:1007B00028BF0424BEF103034FF0FF3E0EFA04F4F9
:1007C00038BF0023A14399400EFA03F39A43114323
:1007D00000F00F0200F160430901043A03F564439D
:1007E0006244002848BF02F10C03197010BD0000DC
:1007F0004EF60C51CEF200010A684FF6FF031A4084
:1008000060F30A2242F0806040F0FD70086070479B
:100810002DE9F04381B0002800F0858042F2000805
:10082000C4F202080446D8F800000D4600F00700A4
:1008300088420CD2D8F8000020F007002843C8F8FE
:100840000000D8F8000000F00700A8426BD1206833
:1008500041F204098107C4F2020917D5410705D501
:10086000D9F8001041F4E061C9F80010010705D57E
:10087000D9F8001041F46051C9F80010D9F80010FF
:10088000A26821F0F0011143C9F80010C00741D15E
:10089000D8F8000000F00700A8420CD9D8F80000F2
:1008A00020F007002843C8F80000D8F8000000F046
:1008B0000700A84237D12068410707D5D9F80010B2
:1008C000E26821F4E0611143C9F80010000708D57F
:1008D000D9F80000216920F4605040EAC100C9F84D
:1008E0000000D9F8002002F00C00082841F2002096
:1008F000C0F27A0050D141F67603C2F38341C0F6CC
:100900000003595CD2033BD440F60010C0F23D0016
:10091000484341E0606802280AD001282AD159F8EA
:10092000041C890308D4012001B0BDE8F08300BF96
:1009300059F8041C8901F6D5D9F8001021F00301FB
:100940000843C9F80000FFF7B9FE064641F28837B0
:10095000D9F80000616800F00C00B0EB810F97D06F
:10096000FFF7ACFE801BB842F2D9032001B0BDE80E
:10097000F08300BF59F8041C8907D4D5DCE700BF19
:10098000D9F8002041F65C03C2F34042C0F60003F0
:100990009A5C4843B0FBF2F0D9F8001041F65E02D1
:1009A000C1F30311C0F60002515C40F2080220FAC4
:1009B00001F140F20400C2F200000068C2F200023D
:1009C0001160FFF7A3FE002001B0BDE8F083000036
:1009D00040F2080041F20401C2F20000C4F2020138
:1009E0000068096841F66E02C1F30221C0F60002F8
:1009F000515CC8407047000040F2080041F2040119
:100A0000C2F20000C4F202010068096841F66E02F9
:100A1000C1F3C221C0F60002515CC840704700001B
:100A20002DE9F04182B0002868D00446007841F2F8
:100A30000006C007C4F2020625D0706800F00C0062
:100A400004281BD0706800F00C00082802D17068E0
:100A5000C00313D46068002800F06881B0F5A02FAF
:100A600000F07C81B0F5803F00F07C81306820F49C
:100A700080303060306820F4802076E13068800378
:100A800001D56068D0B32078800718D5706810F061
:100A90000C0F07D0706800F00C0008286ED1706849
:100AA000C0036BD43068800702D52069012825D1A6
:100AB0003068616920F0F80040EAC10030602078B9
:100AC00000071FD42078400732D4E56995B17068DB
:100AD00000F00C00082840F08F80012D0ED07068C7
:100AE000216A00F480328A4208D1616A00F47010F1
:100AF000884203D1002002B0BDE8F081012002B09D
:100B0000BDE8F081A069002862D00020C4F2422034
:100B10000121C0F88014FFF7D1FD0546706A8007F7
:100B200000F18C80FFF7CAFD401B0228F6D92AE1AC
:100B3000F06910F0805808D1F06940F08050F06101
:100B4000F06900F080500090009847F20007C4F26E
:100B500000073868C00529D4386840F480703860D0
:100B6000FFF7ACFD054600BF3868C0051ED4FFF78F
:100B7000A5FD401B6428F7D905E100BF20690028C6
:100B800040F20000C4F2422000F0828001210160A6
:100B9000FFF794FD054600BF306880073FF588AF3A
:100BA000FFF78CFD401B0228F6D9ECE0E068002836
:100BB00000F08080052800F09780012800F09880E0
:100BC000306A20F001003062306A20F0040092E0C8
:100BD0000020C4F242200021C0F88014FFF76EFD0F
:100BE000054600BF706A80077FF56CAFFFF766FDB2
:100BF000401B0228F6D9C6E00027C4F24227002095
:100C00003866FFF75BFD022D05460BD13068800189
:100C100040F1BE80FFF752FD401B02284FF0030059
:100C2000F4D968E7306880017FF564AFFFF746FDCF
:100C3000401B02284FF00300F4D95CE740F20800A3
:100C4000C2F20000006844F6D351C1F26201A0FB79
:100C50000101480A019000BF00BF0198411E002811
:100C600001913FF42FAF00BF0198411E0028019170
:100C70003FF428AF00BF0198411E002801913FF4C6
:100C800021AF00BF0198411E00280191E4D119E76E
:100C900000210160FFF712FD054600BF30688007A4
:100CA0007FF50DAFFFF70AFD401B02284FF0030050
:100CB000F4D920E7306A20F001003062306A20F079
:100CC00004003062FFF7FAFC054641F2883700BFA6
:100CD000306A800720D5FFF7F1FC401BB8424FF087
:100CE0000300F5D907E700BF306A40F00400306226
:100CF000306A40F001003062FFF7E0FC054641F247
:100D0000883700BF306A800706D4FFF7D7FC401B46
:100D1000B842F7D937E000BFB8F1000F7FF4D5AE85
:100D2000F06920F08050F061CFE600BF306820F419
:100D300080303060306820F480203060FFF7BEFCE7
:100D4000054600BF306880037FF59DAEFFF7B6FC17
:100D5000401B64284FF00300F4D9CCE6306840F41F
:100D600080203060306840F480303060FFF7A6FCAF
:100D7000054600BF306880033FF585AEFFF79EFC57
:100D8000401B6428F6D9032002B0BDE8F08100BF03
:100D9000206AB0F5803F05D17168A26821F4003166
:100DA000114371607168626A21F474111143084340
:100DB000706001203866FFF781FC044630688001CE
:100DC0003FF598AEFFF77AFC001B02284FF00300B6
:100DD000F4D990E6411E0020B0EB116F1CBF01203A
:100DE00070474EF21002CEF2000251604EF62351CF
:100DF000CEF20001F0230B70072190601160704764
:100E000010B590F83C20012A4FF0020233D080F850
:100E10003D200268D2F804E0D2F808C00C682EF039
:100E20007003234340F2FF74C4F20004A2425360F3
:100E30000ADCB2F1804F13D040F20043C4F2000349
:100E40009A420DD011E000BF42F60043C4F2010304
:100E50009A4205D040F60003C4F200039A4204D13E
:100E600049682CF08003194391600121002280F829
:100E70003D1080F83C20104610BD0000002804BF43
:100E80000120704710B5044690F83D0028B90020B5
:100E900084F83C00204600F067F8022084F83D000A
:100EA000206840F2FF730268C4F2000342F6004C6F
:100EB0009842C4F2010C15DCB0F1804F1AD040F218
:100EC0000041C4F20001884214D0984218DCB0F10D
:100ED000804F1DD040F20041C4F20001884217D07B
:100EE0001AE000BF604505D040F60001C4F20001E1
:100EF0008842EAD1A16822F070020A439842E6DDF6
:100F0000604505D040F60001C4F20001884203D1DB
:100F1000216922F440720A43A36922F08001D4F8C7
:100F200004E0E268194360450160C262C0F828E04D
:100F300002D16169CCF8301001214161002084F8B0
:100F4000461084F83E1084F83F1084F8401084F86E
:100F5000411084F8421084F8431084F8441084F857
:100F6000451084F83D1010BD81B0006842F6004184
:100F7000C4F20101884201D001B0704741F218006B
:100F8000C4F20200016841F400610160006800F4ED
:100F900000600090009801B07047000090F83D108C
:100FA00001291CBF01207047022180F83D10006814
:100FB00040F2FF71C4F20001884209DCB0F1804FB9
:100FC00012D040F20041C4F2000188420CD012E07D
:100FD00042F60041C4F20101884205D040F600010A
:100FE000C4F20001884206D1816801F00701062998
:100FF00004BF00207047016841F00101016000203A
:10100000704700000146006841F21113026A1A425B
:1010100004D00122002081F83D207047026A40F28E
:1010200044431A42F5D1026822F001020260012213
:10103000002081F83D20704780B590F83C20012ABF
:101040004FF0020200F0BF8080F83D20D0F800C0D1
:101050004FF67772DCF8083023EA0202CCF8082059
:101060000B683F2B1CDD5F2B20DD602B50D0B3F5D0
:10107000005F6DD0702B40F0A080D1E901E3C9681A
:10108000DCF8082043EA0E0322F47F4243EA012100
:101090001143CCF80810DCF8081041F077018AE021
:1010A0001F2B29DC63B3102B2AD086E0402B63D0A2
:1010B000502B40F08280D1F804E0C968DCF8203081
:1010C000DCF8202022F00102CCF82020DCF81820E7
:1010D00022F0F00242EA011123F00A0242EA0E0273
:1010E000CCF81810CCF82020DCF8081041F057019B
:1010F00021F020015FE000BF202B01D0302B5CD11C
:10110000DCF8081021F07001194341F0070152E0AA
:10111000D1F804E0C968DCF8203023F01003CCF8E3
:101120002030DCF81830DCF8202023F4704322F063
:10113000A00243EA013142EA0E12CCF81810CCF8B2
:101140002020DCF8081041F0670121F0100132E0A6
:10115000D1E901E3C968DCF8082043EA0E0322F470
:101160007F4243EA01211143CCF80810DCF8081053
:1011700041F480411FE000BFD1F804E0C968DCF809
:101180002030DCF8202022F00102CCF82020DCF80E
:10119000182022F0F00242EA011123F00A0242EA8A
:1011A0000E02CCF81810CCF82020DCF8081041F022
:1011B000470121F03001CCF808100121002280F80D
:1011C0003D1080F83C20104680BD0000002804BF80
:1011D0000120704710B5044690F83D0028B9002062
:1011E00084F83C00204600F061F8242084F83D009B
:1011F0002068D4E90212C36823F40053C360036972
:1012000023F440531A430261D4E904231143C26812
:10121000194341F20C639A431143C1604169A269C9
:1012200021F44071114343F60002C4F201029042DE
:10123000416103D0FFF7CCFB02E000BFFFF7DCFB0E
:101240006268192148439100B0FBF1F048F21F5148
:10125000C5F2EB11A0FB01235A094FF69C73C0F6AF
:10126000FF7302FB0300322303EB0010A0FB01011C
:10127000F02303EA5113206803EB0212C1F3431178
:1012800011448160016921F490410161416921F0BB
:101290002A014161C16841F40051C1600020202150
:1012A000206484F83D1084F83E1010BD70B586B0FF
:1012B00040F60004C4F20104006804F54051002621
:1012C0008842049602D006B070BD00BF41F21800FB
:1012D000C4F20200016802AD41F48041016001687E
:1012E00001F4804101910199016841F0040101601C
:1012F0000068294600F00400019001984FF4007046
:10130000029002200390032005902046FFF7BCF8CE
:101310004FF48060CDE90206204629460496FFF787
:10132000B3F806B070BD0000B0B540F60004C4F2DA
:101330000104204620210122FFF7BAF91420FFF70B
:1013400075F8204620210022FFF7B2F920464021FF
:10135000FFF7A8F90028F9D040F21005C2F2000505
:101360002868002141622846FFF718FE20464021E8
:10137000FFF798F90028F9D12846FFF743FE2868BF
:10138000406AFEF75AFF0023C4F24D030022FEF725
:10139000C9FEFEF75FFFB0BDB0B540F60004C4F271
:1013A0000104204608210122FFF782F91420FFF7EB
:1013B0003DF8204608210022FFF77AF92046102147
:1013C000FFF770F90028F9D040F21005C2F20005CD
:1013D0002868002141622846FFF7E0FD20461021E1
:1013E000FFF760F90028F9D12846FFF70BFE2868BF
:1013F000406AFEF722FF0023C4F24D030022FEF7ED
:1014000091FEFEF727FFB0BDB0B540F60004C4F270
:101410000104204680210122FFF74AF91420FFF73A
:1014200005F8204680210022FFF742F904F5806488
:1014300020460121FFF736F90028F9D040F21005C7
:10144000C2F200052868002141622846FFF7A6FD88
:1014500020460121FFF726F90028F9D12846FFF799
:10146000D1FD2868406AFEF7E8FE0023C4F24D0370
:101470000022FEF757FEFEF7EDFEB0BDB0B540F618
:101480000004C4F2010404F580652846022101220B
:10149000FFF70EF91420FEF7C9FF284602210022AB
:1014A000FFF706F920460121FFF7FCF80028F9D0E4
:1014B00040F21005C2F2000528680021416228466A
:1014C000FFF76CFD20460121FFF7ECF80028F9D169
:1014D0002846FFF797FD2868406AFEF7AEFE002316
:1014E000C4F24D030022FEF71DFEFEF7B3FEB0BDB1
:1014F000FEE700002DE9F04F85B04FF0000A41F201
:101500001800CDF810A0C4F20200016840F60005F2
:1015100041F0100101600168C4F2010501F0100101
:10152000009100990168002241F0200101600168EA
:101530004FF0AE0901F0200100910099016841F0DF
:1015400004010160016801F0040100910099016843
:1015500041F0080101600068AE2100F00800009031
:1015600000982846FFF7A4F805F5806420464FF65A
:10157000024100224FF60248FFF79AF8512001AECF
:10158000CDE9010A28463146CDF80CA0FEF77CFFD4
:10159000CDF804904FF001094FF0020B03272846C5
:1015A0003146CDF80890CDF80CB00497FEF76CFFEB
:1015B000F920CDE9010A20463146CDF80CA0FEF70E
:1015C00063FF01A880E8000B204631460497FEF730
:1015D0005BFF05B0BDE8F08F80B586B040F210002B
:1015E00042F600420021C2F20000C4F20102472389
:1015F0004FF6FF7C0591CDE90311CDE90011C0E95B
:101600000023C0E9021CC0E904118161FFF736FC28
:10161000002818BFFEF704FF4FF48050029040F2FC
:101620001000C2F2000002A9FFF706FD002818BF53
:10163000FEF7F6FE40F21000C2F200006946FFF726
:10164000DFFB002818BFFEF7EBFE06B080BD0000F0
:1016500080B540F2580043F60001C2F20000C4F227
:10166000010100234FF00C0C4FF4165280E80E00DD
:10167000C0E90333C0E905C3C361FFF7A7FD002834
:1016800008BF80BDBDE88040FEF7CABEFEE700008F
:10169000FEE700007047000070470000FFF714B835
:1016A00070470000FEE7000090B0FFF71BF8002431
:1016B0000120CDE90B44CDE9094406900A904FF48E
:1016C000E0104FF4803102250F9006A8CDE90714F1
:1016D000CDE90D51FFF7A4F920B1EFF3108072B6F8
:1016E000FEE700BF0F20CDE901054FF48060CDE992
:1016F000040401A802210394FFF78AF820B1EFF354
:10170000108072B6FEE700BF40F60049C4F201093E
:10171000FFF7F0FEFFF79CFFFFF75EFF40F20008C7
:10172000C4F2201835E000BF4FF0000A0027002562
:101730000026A9F58064204602215246FEF7B8FF34
:1017400048464FF480613A46FEF7B2FF2046042136
:101750002A46FEF7ADFF48464FF400613246FEF7D9
:10176000A7FF48464FF480513246FEF7A1FF484696
:101770004FF480412A46FEF79BFF48464FF4005144
:101780003A46FEF795FF48464FF400415246FEF7B1
:101790008FFFFFF701FE0746FFF7C6FD0646FFF77E
:1017A00033FE0546FFF76AFE044638464146FEF71B
:1017B00036FD78B930464146FEF731FD50B928462E
:1017C0004146FEF72CFD28B920464146FEF719FD9B
:1017D0000028A9D148462021FEF764FF012803D143
:1017E00000274FF0010A0EE048460821FEF75AFF95
:1017F000012805D048461021FEF754FF012805D1E5
:1018000001274FF0000A012592E700BF484640211A
:10181000FEF748FF012805D100274FF0010A0025F7
:10182000012686E748468021FEF73CFF0138B0FAE2
:1018300080F04FEA501A00270025564679E702E06B
:1018400008C8121F08C1002AFAD17047704700204B
:1018500001E001C1121F002AFBD170470102000004
:101860000000000000000102030406070809000050
:1018700000000102030402030405060708090A0B1D
:101880000C0D0E0F10100000A8180008000000201A
:10189000100000003E180008B818000810000020D2
:1018A000900400004E180008010000001000000025
:0818B0000024F4000000000018
:04000005080000ED02
:00000001FF
